S00D0000662E656C662E737265634C
S315080000000000012045030008550300085B030008AB
S3150800001000000000000000000000000000000000D2
S3150800002000000000000000000000000000000000C2
S3150800003000000000000000000000000000000000B2
S3150800004000000000000000000000000000000000A2
S315080000500000000000000000000000000000000092
S315080000600000000000000000000000000000000082
S315080000700000000000000000000000000000000072
S315080000800000000000000000000000000000000062
S315080000900000000000000000000000000000000052
S315080000A00000000000000000000000000000000042
S315080000B00000000000000000000000000000000032
S315080000C00000000000000000000000000000000022
S315080000D00000000000000000000000000000000012
S315080000E00000000000000000000000000000000002
S315080000F000000000000000000000000000000000F2
S3150800010000000000000000000000000000000000E1
S3150800011000000000000000000000000000000000D1
S3150800012000000000000000000000000000000000C1
S3150800013000000000000000000000000000000000B1
S3150800014000000000000000000000000000000000A1
S315080001500000000000000000000000000000000091
S315080001600000000000000000000000000000000081
S315080001700000000000000000000000000000000071
S315080001800000000000000000000000000000000061
S315080001900000000000000000000000000000000051
S315080001A00000000000000000000000000000000041
S315080001B00000000000000000000000000000000031
S315080001C00000000000000000000000000000000021
S315080001D00000000000000000000000000000000011
S315080001E00000000000000000000000000000000001
S315080001F000000000000000000000000000000000F1
S3150800020080B500AF00F007F800F0AAF800F0BCF8D7
S3150800021000F0DEF8FEE780B400AF2A4B1B68294AD7
S3150800022043F48033136000BF264B1B6803F4003386
S31508000230002BF9D0244B1B68234A43F010031360A4
S31508000240214B1B68204A23F0070313601E4B1B68CB
S315080002501D4A43F0040313601A4B5B68194A43F4BA
S3150800026080635360174B5B68164A43F4E013536088
S31508000270144B5B68134A43F4C0335360114B1B6835
S31508000280104A43F08073136000BF0E4B1B6803F0DF
S315080002900073002BF9D00B4B5B680A4A23F0030363
S315080002A05360084B5B68074A43F00203536000BF7C
S315080002B0044B5B6803F00C03082BF9D100BFBD465D
S315080002C080BC7047001002400020024080B485B010
S315080002D000AF174BFB60174BBB6000237B600CE03D
S315080002E0BB681A78FB681A70FB680133FB60BB6849
S315080002F00133BB607B6801337B600F4A7B6893429E
S31508000300EEDB0E4BFB6000233B6007E03B68FA68B8
S31508000310134400221A703B6801333B60084A3B6865
S315080003209342F3DB00BF1437BD4680BC704700BF5D
S31508000330000000202804000800000000000000203B
S315080003400400000080B500AF00BEFFF7BFFFFFF74F
S3150800035057FFFEE780B400AFFEE780B400AFFEE7C4
S3150800036080B400AF074B5B69064A43F40023536128
S31508000370044BDB69034A43F00203D36100BFBD4661
S3150800038080BC70470010024080B483B000AF0F4BAA
S315080003901B680E4A43F40033136002237B60002374
S315080003A03B600A4B5A6A79683B6801FA03F30749C6
S315080003B013434B62054B5B68044A23F4807353600E
S315080003C000BF0C37BD4680BC704700BF0008004818
S315080003D080B400AF134BDB69124A43F06803D3615C
S315080003E0104B1B6A0F4A43F4807313620D4B4FF48C
S315080003F0E1529A620B4B42F21072DA62094B41F2F1
S315080004008832DA63074B5B69064A43F00103536196
S31508000410044B1B68034A43F00103136000BFBD4643
S30D0800042080BC7047000400408F
S70508000200F0
