S00D0000662E656C662E737265634C
S31508000000000001205D0300086D0300087303000863
S3150800001000000000000000000000000000000000D2
S3150800002000000000000000000000000000000000C2
S3150800003000000000000000000000000000000000B2
S3150800004000000000000000000000000000000000A2
S315080000500000000000000000000000000000000092
S315080000600000000000000000000000000000000082
S315080000700000000000000000000000000000000072
S315080000800000000000000000000000000000000062
S315080000900000000000000000000000000000000052
S315080000A00000000000000000000000000000000042
S315080000B00000000000000000000000000000000032
S315080000C00000000000000000000000000000000022
S315080000D00000000000000000000000000000000012
S315080000E00000000000000000000000000000000002
S315080000F000000000000000000000000000000000F2
S3150800010000000000000000000000000000000000E1
S3150800011000000000000000000000000000000000D1
S3150800012000000000000000000000000000000000C1
S3150800013000000000000000000000000000000000B1
S3150800014000000000000000000000000000000000A1
S315080001500000000000000000000000000000000091
S315080001600000000000000000000000000000000081
S315080001700000000000000000000000000000000071
S315080001800000000000000000000000000000000061
S315080001900000000000000000000000000000000051
S315080001A00000000000000000000000000000000041
S315080001B00000000000000000000000000000000031
S315080001C00000000000000000000000000000000021
S315080001D00000000000000000000000000000000011
S315080001E00000000000000000000000000000000001
S315080001F000000000000000000000000000000000F1
S3150800020080B500AF00F007F800F0B6F800F0D2F8B5
S3150800021000F068F9FEE780B400AF304B1B682F4A40
S3150800022043F48033136000BF2C4B1B6803F4003380
S31508000230002BF9D02A4B1B68294A43F01003136098
S31508000240274B1B68264A23F007031360244B1B68B9
S31508000250234A43F004031360204B5B691F4A43F0AB
S31508000260805353611D4B5B691C4A43F0010353617C
S315080002701A4B5B68194A43F480635360174B5B68F3
S31508000280164A43F4E0135360144B5B68134A43F46D
S31508000290C0335360114B1B68104A43F080731360D8
S315080002A000BF0E4B1B6803F00073002BF9D00B4BF5
S315080002B05B680A4A23F003035360084B5B68074AE6
S315080002C043F00203536000BF044B5B6803F00C0362
S315080002D0082BF9D100BFBD4680BC7047001002400C
S315080002E00020024080B485B000AF174BFB60174B67
S315080002F0BB6000237B600CE0BB681A78FB681A7049
S31508000300FB680133FB60BB680133BB607B68013364
S315080003107B600F4A7B689342EEDB0E4BFB60002343
S315080003203B6007E03B68FA68134400221A703B6892
S3150800033001333B60084A3B689342F3DB00BF14373E
S31508000340BD4680BC704700BF00000020F0040008CE
S3150800035000000000000000200000000080B500AF8B
S3150800036000BEFFF7BFFFFFF74BFFFEE780B400AF05
S31508000370FEE780B400AFFEE780B483B000AF0C4B55
S315080003805B690B4A43F400335361094B5B6923F4F9
S3150800039000337B607B684FF090431B684FF09042B8
S315080003A043F00303136000BF0C37BD4680BC70479B
S315080003B00010024080B400AF494B9B68484A43F49A
S315080003C0803393604FF0A043DB684FF0A04243F4BC
S315080003D00053D3604FF0A043DB684FF0A04243F0D0
S315080003E00103D3604FF0A0439B684FF0A04243F04F
S315080003F00043936000BF4FF0A0439B68002BFADBD5
S315080004004FF0A0439B684FF0A04243F0010393606E
S3150800041000BF4FF0A0431B6803F00103002BF8D080
S315080004204FF0A0431B6B4FF0A04243F080031363C9
S315080004304FF0A0434FF0A0425B6953614FF0A043D1
S315080004404FF0A0421B6B1363254B9B68244A43F06D
S3150800045006039360224B224A9B689360204B9B6855
S315080004601F4A43F4004393604FF0A0439B684FF044
S31508000470A04243F0040393604FF0A0439B684FF0FB
S31508000480A04243F0040393604FF0A0439B684FF0EB
S31508000490A04243F0040393604FF0A0439B684FF0DB
S315080004A0A04243F0040393604FF0A0439B684FF0CB
S315080004B0A04243F0040393604FF0A0439B684FF0BB
S315080004C0A04243F0040393604FF0A0439B684FF0AB
S315080004D0A04243F00403936000BFBD4680BC70474A
S315080004E00003005080B400AF00BFBD4680BC704713
S70508000200F0
