S00D0000662E656C662E737265634C
S315080000000000012011030008CD020008CF020008F5
S3150800001000000000000000000000000000000000D2
S3150800002000000000000000000000000000000000C2
S3150800003000000000000000000000000000000000B2
S3150800004000000000000000000000000000000000A2
S315080000500000000000000000000000000000000092
S315080000600000000000000000000000000000000082
S315080000700000000000000000000000000000000072
S315080000800000000000000000000000000000000062
S315080000900000000000000000000000000000000052
S315080000A00000000000000000000000000000000042
S315080000B00000000000000000000000000000000032
S315080000C00000000000000000000000000000000022
S315080000D00000000000000000000000000000000012
S315080000E00000000000000000000000000000000002
S315080000F000000000000000000000000000000000F2
S3150800010000000000000000000000000000000000E1
S3150800011000000000000000000000000000000000D1
S3150800012000000000000000000000000000000000C1
S3150800013000000000000000000000000000000000B1
S3150800014000000000000000000000000000000000A1
S315080001500000000000000000000000000000000091
S315080001600000000000000000000000000000000081
S315080001700000000000000000000000000000000071
S315080001800000000000000000000000000000000061
S315080001900000000000000000000000000000000051
S315080001A00000000000000000000000000000000041
S315080001B00000000000000000000000000000000031
S315080001C00000000000000000000000000000000021
S315080001D00000000000000000000000000000000011
S315080001E00000000000000000000000000000000001
S315080001F000000000000000000000000000000000F1
S3150800020082B0084B5A6942F400225A615B6923F4AA
S3150800021000230193019B044A136843F48053136037
S3150800022002B070470010024000080048024A5369AD
S3150800023083F040035361704700080048064B0022CC
S315080002401A60054B1B68054A934203DC0133024AD0
S315080002501360F6E7704700BF000000203F0D03005B
S31508000260024AD36843F48023D360704700080048E5
S31508000270024A536943F04003536170470008004837
S31508000280024B6FF040025A61704700BF00080048F1
S3150800029008B5FFF7B5FFFFF7E3FF00F041F800F0F8
S315080002A047F800F055F804E0074B1B6913F4007F84
S315080002B007D0054B1B6913F4007FF5D0FFF7E0FF65
S315080002C0F7E7FFF7D5FFF4E700080048FEE7FEE783
S315080002D000230A480A490B4A9A4205DD10F8012B01
S315080002E001F8012B0133F6E7002303E0064A002153
S315080002F099540133054A9A42F8DC70479C03000872
S31508000300000000200000000000000020040000009B
S3150800031008B500BEFFF7DCFFFFF7BAFFFEE700BF30
S31508000320024AD36943F00203D361704700100240C2
S31508000330064B1A6842F400321A601A6A42F40072CE
S315080003401A625A6822F480725A6070470008004898
S31508000350114B9A6922F4803222F010029A619A6946
S3150800036042F4804242F028029A611A6A42F4807284
S315080003701A624FF4FA529A624FF47A72DA624FF4BA
S31508000380FA725A635A6942F001025A611A6842F0CF
S3110800039001021A60704700BF000400401C
S70508000200F0
