S00D0000662E656C662E737265634C
S3150800000000000120B502000871020008730200080A
S3150800001000000000000000000000000000000000D2
S3150800002000000000000000000000000000000000C2
S3150800003000000000000000000000000000000000B2
S3150800004000000000000000000000000000000000A2
S315080000500000000000000000000000000000000092
S315080000600000000000000000000000000000000082
S315080000700000000000000000000000000000000072
S315080000800000000000000000000000000000000062
S315080000900000000000000000000000000000000052
S315080000A00000000000000000000000000000000042
S315080000B00000000000000000000000000000000032
S315080000C00000000000000000000000000000000022
S315080000D00000000000000000000000000000000012
S315080000E00000000000000000000000000000000002
S315080000F000000000000000000000000000000000F2
S3150800010000000000000000000000000000000000E1
S3150800011000000000000000000000000000000000D1
S3150800012000000000000000000000000000000000C1
S3150800013000000000000000000000000000000000B1
S3150800014000000000000000000000000000000000A1
S315080001500000000000000000000000000000000091
S315080001600000000000000000000000000000000081
S315080001700000000000000000000000000000000071
S315080001800000000000000000000000000000000061
S315080001900000000000000000000000000000000051
S315080001A00000000000000000000000000000000041
S315080001B00000000000000000000000000000000031
S315080001C00000000000000000000000000000000021
S315080001D00000000000000000000000000000000011
S315080001E00000000000000000000000000000000001
S315080001F000000000000000000000000000000000F1
S3150800020082B0084B5A6942F400225A615B6923F4AA
S3150800021000230193019B044A136843F48053136037
S3150800022002B070470010024000080048024A5369AD
S3150800023083F040035361704700080048064B0022CC
S315080002401A60054B1B68054A934203DC0133024AD0
S315080002501360F6E7704700BF000000203F0D03005B
S3150800026008B5FFF7CDFFFFF7E1FFFFF7E7FFFAE76E
S31508000270FEE7FEE700230A480A490B4A9A4205DDCB
S3150800028010F8012B01F8012B0133F6E7002303E0F0
S31508000290064A002199540133054A9A42F8DC704708
S315080002A0C402000800000020000000000000002032
S315080002B00400000008B500BEFFF7DCFFFFF7D0FF1B
S309080002C0FEE700BF88
S70508000200F0
