:020000040800F2
:1000000000000120C90200088502000887020008DC
:1000100000000000000000000000000000000000E0
:1000200000000000000000000000000000000000D0
:1000300000000000000000000000000000000000C0
:1000400000000000000000000000000000000000B0
:1000500000000000000000000000000000000000A0
:100060000000000000000000000000000000000090
:100070000000000000000000000000000000000080
:100080000000000000000000000000000000000070
:100090000000000000000000000000000000000060
:1000A0000000000000000000000000000000000050
:1000B0000000000000000000000000000000000040
:1000C0000000000000000000000000000000000030
:1000D0000000000000000000000000000000000020
:1000E0000000000000000000000000000000000010
:1000F0000000000000000000000000000000000000
:1001000000000000000000000000000000000000EF
:1001100000000000000000000000000000000000DF
:1001200000000000000000000000000000000000CF
:1001300000000000000000000000000000000000BF
:1001400000000000000000000000000000000000AF
:10015000000000000000000000000000000000009F
:10016000000000000000000000000000000000008F
:10017000000000000000000000000000000000007F
:10018000000000000000000000000000000000006F
:10019000000000000000000000000000000000005F
:1001A000000000000000000000000000000000004F
:1001B000000000000000000000000000000000003F
:1001C000000000000000000000000000000000002F
:1001D000000000000000000000000000000000001F
:1001E000000000000000000000000000000000000F
:1001F00000000000000000000000000000000000FF
:1002000082B0084B5A6942F400225A615B6923F4B8
:1002100000230193019B044A136843F48053136045
:1002200002B070470010024000080048024A5369BB
:1002300083F040035361704700080048064B0022DA
:100240001A60054B1B68054A934203DC0133024ADE
:100250001360F6E7704700BF000000203F0D030069
:10026000024AD36843F48023D360704700080048F3
:1002700008B5FFF7C5FFFFF7F3FFFFF7D7FFFFF75D
:10028000DDFFF8E7FEE7FEE700230A480A490B4ACC
:100290009A4205DD10F8012B01F8012B0133F6E736
:1002A000002303E0064A002199540133054A9A428B
:1002B000F8DC7047D80200080000002000000000B1
:1002C000000000200400000008B500BEFFF7DCFFBE
:0802D000FFF7CEFFFEE700BFBF
:0400000508000200ED
:00000001FF
